{
  "contractName": "MultiSigWallet",
  "abi": [
    {
      "constant": true,
      "inputs": [
        {
          "name": "",
          "type": "uint256"
        }
      ],
      "name": "proposals",
      "outputs": [
        {
          "name": "to",
          "type": "address"
        },
        {
          "name": "amount",
          "type": "uint256"
        },
        {
          "name": "finalize",
          "type": "bool"
        }
      ],
      "payable": false,
      "stateMutability": "view",
      "type": "function"
    },
    {
      "constant": true,
      "inputs": [
        {
          "name": "",
          "type": "uint256"
        }
      ],
      "name": "signers",
      "outputs": [
        {
          "name": "",
          "type": "address"
        }
      ],
      "payable": false,
      "stateMutability": "view",
      "type": "function"
    },
    {
      "constant": true,
      "inputs": [],
      "name": "signersRequired",
      "outputs": [
        {
          "name": "",
          "type": "uint256"
        }
      ],
      "payable": false,
      "stateMutability": "view",
      "type": "function"
    },
    {
      "constant": true,
      "inputs": [
        {
          "name": "",
          "type": "address"
        }
      ],
      "name": "canSign",
      "outputs": [
        {
          "name": "",
          "type": "bool"
        }
      ],
      "payable": false,
      "stateMutability": "view",
      "type": "function"
    },
    {
      "inputs": [
        {
          "name": "initSigners",
          "type": "address[]"
        },
        {
          "name": "signersRequirementsMet",
          "type": "uint256"
        }
      ],
      "payable": false,
      "stateMutability": "nonpayable",
      "type": "constructor"
    },
    {
      "payable": true,
      "stateMutability": "payable",
      "type": "fallback"
    },
    {
      "constant": true,
      "inputs": [],
      "name": "balance",
      "outputs": [
        {
          "name": "",
          "type": "uint256"
        }
      ],
      "payable": false,
      "stateMutability": "view",
      "type": "function"
    },
    {
      "constant": false,
      "inputs": [
        {
          "name": "to",
          "type": "address"
        },
        {
          "name": "amount",
          "type": "uint256"
        }
      ],
      "name": "submitProposal",
      "outputs": [],
      "payable": false,
      "stateMutability": "nonpayable",
      "type": "function"
    },
    {
      "constant": false,
      "inputs": [
        {
          "name": "index",
          "type": "uint256"
        }
      ],
      "name": "signProposal",
      "outputs": [],
      "payable": false,
      "stateMutability": "nonpayable",
      "type": "function"
    },
    {
      "constant": true,
      "inputs": [
        {
          "name": "index",
          "type": "uint256"
        }
      ],
      "name": "signersRequirementsMet",
      "outputs": [
        {
          "name": "",
          "type": "bool"
        }
      ],
      "payable": false,
      "stateMutability": "view",
      "type": "function"
    },
    {
      "constant": false,
      "inputs": [
        {
          "name": "index",
          "type": "uint256"
        }
      ],
      "name": "finalizeProposal",
      "outputs": [],
      "payable": false,
      "stateMutability": "nonpayable",
      "type": "function"
    }
  ],
  "bytecode": "0x608060405234801561001057600080fd5b50604051610b28380380610b28833981018060405281019080805182019291906020018051906020019092919050505060008260009080519060200190610058929190610109565b50600082141561006f578251600381905550610077565b816003819055505b600090505b825181101561010157600160026000858481518110151561009957fe5b9060200190602002015173ffffffffffffffffffffffffffffffffffffffff1673ffffffffffffffffffffffffffffffffffffffff16815260200190815260200160002060006101000a81548160ff021916908315150217905550808060010191505061007c565b5050506101d6565b828054828255906000526020600020908101928215610182579160200282015b828111156101815782518260006101000a81548173ffffffffffffffffffffffffffffffffffffffff021916908373ffffffffffffffffffffffffffffffffffffffff16021790555091602001919060010190610129565b5b50905061018f9190610193565b5090565b6101d391905b808211156101cf57600081816101000a81549073ffffffffffffffffffffffffffffffffffffffff021916905550600101610199565b5090565b90565b610943806101e56000396000f300608060405260043610610099576000357c0100000000000000000000000000000000000000000000000000000000900463ffffffff168063013cf08b1461009b5780632079fb9a1461011a5780632d2a7943146101875780635652077c146101b257806361954d3e146101df5780637ef3052014610224578063ab2730161461027f578063b69ef8a8146102ac578063d2c056a6146102d7575b005b3480156100a757600080fd5b506100c660048036038101908080359060200190929190505050610324565b604051808473ffffffffffffffffffffffffffffffffffffffff1673ffffffffffffffffffffffffffffffffffffffff16815260200183815260200182151515158152602001935050505060405180910390f35b34801561012657600080fd5b506101456004803603810190808035906020019092919050505061038a565b604051808273ffffffffffffffffffffffffffffffffffffffff1673ffffffffffffffffffffffffffffffffffffffff16815260200191505060405180910390f35b34801561019357600080fd5b5061019c6103c8565b6040518082815260200191505060405180910390f35b3480156101be57600080fd5b506101dd600480360381019080803590602001909291905050506103ce565b005b3480156101eb57600080fd5b5061020a600480360381019080803590602001909291905050506105a6565b604051808215151515815260200191505060405180910390f35b34801561023057600080fd5b50610265600480360381019080803573ffffffffffffffffffffffffffffffffffffffff1690602001909291905050506106b0565b604051808215151515815260200191505060405180910390f35b34801561028b57600080fd5b506102aa600480360381019080803590602001909291905050506106d0565b005b3480156102b857600080fd5b506102c16107c4565b6040518082815260200191505060405180910390f35b3480156102e357600080fd5b50610322600480360381019080803573ffffffffffffffffffffffffffffffffffffffff169060200190929190803590602001909291905050506107e3565b005b60018181548110151561033357fe5b90600052602060002090600402016000915090508060000160009054906101000a900473ffffffffffffffffffffffffffffffffffffffff16908060010154908060030160009054906101000a900460ff16905083565b60008181548110151561039957fe5b906000526020600020016000915054906101000a900473ffffffffffffffffffffffffffffffffffffffff1681565b60035481565b33600260008273ffffffffffffffffffffffffffffffffffffffff1673ffffffffffffffffffffffffffffffffffffffff16815260200190815260200160002060009054906101000a900460ff16151561042757600080fd5b81610431816105a6565b151561043c57600080fd5b60018381548110151561044b57fe5b9060005260206000209060040201600101543073ffffffffffffffffffffffffffffffffffffffff16311015151561048257600080fd5b6000151560018481548110151561049557fe5b906000526020600020906004020160030160009054906101000a900460ff1615151415156104c257600080fd5b600180848154811015156104d257fe5b906000526020600020906004020160030160006101000a81548160ff02191690831515021790555060018381548110151561050957fe5b906000526020600020906004020160000160009054906101000a900473ffffffffffffffffffffffffffffffffffffffff1673ffffffffffffffffffffffffffffffffffffffff166108fc60018581548110151561056357fe5b9060005260206000209060040201600101549081150290604051600060405180830381858888f193505050501580156105a0573d6000803e3d6000fd5b50505050565b600080600083600081101580156105c1575060018054905081105b15156105cc57600080fd5b60009250600091505b6000805490508210156106a0576001858154811015156105f157fe5b90600052602060002090600402016002016000808481548110151561061257fe5b9060005260206000200160009054906101000a900473ffffffffffffffffffffffffffffffffffffffff1673ffffffffffffffffffffffffffffffffffffffff1673ffffffffffffffffffffffffffffffffffffffff16815260200190815260200160002060009054906101000a900460ff16156106935782806001019350505b81806001019250506105d5565b6003548310159350505050919050565b60026020528060005260406000206000915054906101000a900460ff1681565b33600260008273ffffffffffffffffffffffffffffffffffffffff1673ffffffffffffffffffffffffffffffffffffffff16815260200190815260200160002060009054906101000a900460ff16151561072957600080fd5b816000811015801561073f575060018054905081105b151561074a57600080fd5b6001808481548110151561075a57fe5b906000526020600020906004020160020160003373ffffffffffffffffffffffffffffffffffffffff1673ffffffffffffffffffffffffffffffffffffffff16815260200190815260200160002060006101000a81548160ff021916908315150217905550505050565b60003073ffffffffffffffffffffffffffffffffffffffff1631905090565b33600260008273ffffffffffffffffffffffffffffffffffffffff1673ffffffffffffffffffffffffffffffffffffffff16815260200190815260200160002060009054906101000a900460ff16151561083c57600080fd5b60016060604051908101604052808573ffffffffffffffffffffffffffffffffffffffff168152602001848152602001600015158152509080600181540180825580915050906001820390600052602060002090600402016000909192909190915060008201518160000160006101000a81548173ffffffffffffffffffffffffffffffffffffffff021916908373ffffffffffffffffffffffffffffffffffffffff1602179055506020820151816001015560408201518160030160006101000a81548160ff0219169083151502179055505050505050505600a165627a7a72305820ae07beb817fe5d422a9972dd9c50131e8262cb1721009791462760ea8612d82c0029",
  "source": "pragma solidity ^0.4.24;\n\ncontract MultiSigWallet {\n\n    address[] public signers;\n    Proposal[] public proposals;\n    mapping(address => bool) public canSign;\n    uint public signersRequired;\n    \n    struct Proposal {\n        address to;\n        uint amount;\n        mapping(address => bool) signed;\n        bool finalize;\n    }\n    \n    constructor (address[] initSigners, uint signersRequirementsMet) public {\n        signers = initSigners;\n        \n        if (signersRequirementsMet == 0) {\n            signersRequired = initSigners.length;\n        } else {\n            signersRequired = signersRequirementsMet;\n        }\n        \n        for(uint i=0; i < initSigners.length; i++) {\n            canSign[initSigners[i]] = true;\n        }\n    }\n    \n    function balance () public view returns(uint) {\n        return address(this).balance;\n    }\n    \n    modifier onlySigner(address sender) {\n        require(canSign[sender]);\n        _;\n    }\n    \n    function submitProposal(address to, uint amount) public onlySigner(msg.sender) {\n        proposals.push(Proposal({\n            to: to,\n            amount: amount,\n            finalize: false\n        }));\n    }\n    \n    modifier existProposal(uint index) {\n        require(index >= 0 && index < proposals.length);\n        _;\n    }\n    \n    function signProposal(uint index) public onlySigner(msg.sender) existProposal(index) {\n        proposals[index].signed[msg.sender] = true;\n    }\n        \n    modifier fullySigned(uint index) {\n        require(signersRequirementsMet(index));\n        _;\n    }\n    \n    function signersRequirementsMet(uint index) public view existProposal(index) returns(bool) {\n        uint signedCount = 0;\n        for (uint i = 0; i < signers.length; i++) {\n            if (proposals[index].signed[signers[i]]) {\n                signedCount++;\n            }\n        }\n        return signedCount >= signersRequired;\n    }\n\n    function finalizeProposal(uint index) public onlySigner(msg.sender) fullySigned(index) {\n        require(address(this).balance >= proposals[index].amount);\n        require(proposals[index].finalize == false);\n        proposals[index].finalize = true;\n        proposals[index].to.transfer(proposals[index].amount);\n    }\n    \n    function () public payable {\n    }\n    \n}\n",
  "sourcePath": "/home/kylin/Ethereum/Contract/MultiSigWallet/contracts/MultiSigWallet.sol",
  "compiler": {
    "name": "solc",
    "version": "0.4.24+commit.e67f0147.Emscripten.clang"
  },
  "schemaVersion": "2.0.1",
  "updatedAt": "2018-08-06T10:59:33.415Z"
}